:100000000C9402070C9446070C9446070C94460780
:100010000C9446070C9446070C9446070C9446072C
:100020000C9446070C9446070C94B22B0C94842C29
:100030000C942C1B0C9446070C9446070C94460712
:100040000C9446070C9446070C9446070C944607FC
:100050000C9446070C949F1B0C9446070C9446077F
:100060000C9446070C9446070C9446070C944607DC
:100070000C9446070C9446070C9446070C944607CC
:100080000C9446070C9446070C9446070C944607BC
:100090000C9446070C9446070C9446070C944607AC
:1000A0000C9446070C9446070C9446079108970851
:1000B0009B089E08A208A608AA08AE08B308B708BD
:1000C000BB08BF08C208C608CA08CE08D208D708AD
:1000D0004611461180118011BF11E111771377137A
:1000E00027127713CE12CE1245134C1377137213C7
:1000F000DB12DB12DB12DB12DB12DB12DB12DB1298
:10010000DB12DB12DB12DB12DB12DB12DB12DB1287
:10011000ED12FD1204130B1315130B140B141E1404
:100120001E1414141E141E141E140B140B141A1473
:100130001E141E141A14E92C102DFE2D102DFE2D48
:10014000582D7B2DFE2DD12DE02D5F00600061002C
:1001500010505C005D005E00115059005A005B00B9
:10016000125062000153630013504A0049004B00D3
:1001700010504D0052004E001150500051004F00E1
:1001800012504C000000E1001350A800AA00A90082
:100190001050AD000000AE001150AC000000AB00EC
:1001A0001250AE00000029001350000000000000B3
:1001B00010503A003B003C0011503D003E00000052
:1001C0001250B85C00000000135044454255473AB5
:1001D00020656E61626C65642E0A000A0025303865
:1001E00062003A200025303258000A722F63203016
:1001F000313233343536370A000A00253032582080
:10020000006B6579626F6172645F7265706F7274A2
:100210003A20000A0025303258006B6579626F6120
:1002200072645F7365745F6C65643A200064656C2A
:100230005F6B65795F6269743A2063616E27742031
:1002400064656C3A20253032580A006164645F6B43
:1002500065795F6269743A2063616E277420616416
:10026000643A20253032580A00646F6E652E0A0009
:10027000626F6F746D61676963207363616E3A20AA
:100280002E2E2E2000290A002575002F002575002E
:100290005D280025640020002564002000256400FE
:1002A00020002564007C0025303258006D6F757386
:1002B000656B6579205B62746E7C7820792076208E
:1002C000685D287265702F61636C293A205B006D50
:1002D0006B5F776865656C5F74696D655F746F5F90
:1002E0006D6178203D2025640A006D6B5F7768653D
:1002F000656C5F6D61785F7370656564203D202576
:10030000640A006D6B5F74696D655F746F5F6D612A
:1003100078203D2025640A006D6B5F6D61785F7306
:1003200070656564203D2025640A006D6B5F696E11
:1003300074657276616C203D2025640A006D6B5FE8
:1003400064656C6179203D2025640A006D6B5F77E0
:100350006865656C5F74696D655F746F5F6D61780A
:10036000203D2025640A006D6B5F776865656C5FD2
:100370006D61785F7370656564203D2025640A00B7
:100380006D6B5F74696D655F746F5F6D6178203D43
:100390002025640A006D6B5F6D61785F7370656521
:1003A00064203D2025640A006D6B5F696E74657280
:1003B00076616C203D2025640A006D6B5F64656C7E
:1003C0006179203D2025640A000A00257500363A2F
:1003D00020776865656C5F74696D655F746F5F6DCC
:1003E00061783A20000A00257500353A2077686563
:1003F000656C5F6D61785F73706565643A20000AB3
:1004000000257500343A2074696D655F746F5F6D07
:1004100061783A20000A00257500333A206D617832
:100420005F73706565643A20000A00257500323AF2
:1004300020696E74657276616C286D73293A2000AC
:100440000A00257500313A2064656C6179282A31EB
:10045000306D73293A20000A092D2056616C7565AC
:1004600073202D0A004D3E004D25643E20003F00C4
:100470007365742064656661756C740A00433E2080
:100480000077686572652064656C74613A206375F5
:1004900072736F723D25642C20776865656C3D250D
:1004A000640A53656520687474703A2F2F656E2E48
:1004B00077696B6970656469612E6F72672F776900
:1004C0006B692F4D6F7573655F6B6579730A000AF1
:1004D000092D204D6F7573656B6579202D0A455385
:1004E000432F713A09717569740A313A0964656C70
:1004F0006179282A31306D73290A323A09696E749C
:10050000657276616C286D73290A333A096D6178DA
:100510005F73706565640A343A0974696D655F7468
:100520006F5F6D61780A353A09776865656C5F6D54
:1005300061785F73706565640A363A097768656546
:100540006C5F74696D655F746F5F6D61780A0A70C6
:100550003A097072696E742076616C7565730A640D
:100560003A097365742064656661756C74730A7505
:10057000703A092B310A646F776E3A092D310A708F
:100580006775703A092B31300A7067646F776E3A7D
:10059000092D31300A0A7370656564203D20646559
:1005A0006C7461202A206D61785F737065656420CA
:1005B0002A2028726570656174202F2074696D652A
:1005C0005F746F5F6D6178290A003F004D3E200027
:1005D000433E20004C25640A0074696D65725F72A9
:1005E000656164333228293A202530346C580A007A
:1005F0006B65796D61705F636F6E6669672E6E6B98
:10060000726F3A2025580A006B6579626F617264D7
:100610005F69646C653A2025580A006B6579626FE2
:100620006172645F70726F746F636F6C3A202558EB
:100630000A00686F73745F6B6579626F6172645FE3
:100640006C65647328293A2025580A000A092D2070
:10065000537461747573202D0A004743433A203464
:100660002E382E31204156522D4C4942433A2031EA
:100670002E382E3073766E204156525F41524348D9
:100680003A20617672350A004F5054494F4E533A22
:10069000204C55464120424F4F544D41474943203D
:1006A0004D4F5553454B45592045585452414B45A4
:1006B0005920434F4E534F4C4520434F4D4D414ED3
:1006C00044204E4B524F20343039360A00425549AF
:1006D0004C443A2022302E352E3233362D32302DF6
:1006E000673362383031382D64697274792220287A
:1006F00032303A33373A3032204D61792032392066
:1007000032303138290A005649443A20307846457B
:1007100041452854686556616E204B6579626F616A
:1007200072647329205049443A203078383834367E
:1007300028526F61646B6974204D6963726F292060
:100740005645523A203078303030330A0044455311
:10075000433A20555342204320526F61646B6974C1
:100760000A000A092D2056657273696F6E202D0AE2
:10077000000A092D20436F6E736F6C65202D0A45AA
:1007800053432F713A09717569740A6D3A096D6F97
:100790007573656B65790A000A092D204D616769DB
:1007A00063202D0A443A094465627567204D6573DC
:1007B0007361676520546F67676C650A583A094D25
:1007C0006174726978204465627567204D6F646555
:1007D00020546F67676C65202D2053686F77206BFE
:1007E00065797072657373657320696E206D6174CD
:1007F00072697820677269640A4B3A094B657962BD
:100800006F61726420446562756720546F67676C1E
:1008100065202D2053686F77206B65797072657342
:1008200073207265706F72740A4D3A09446562757F
:1008300067204D6F75736520546F67676C650A5646
:100840003A0956657273696F6E0A533A09537461B7
:100850007475730A433A094163746976617465205B
:10086000436F6E736F6C65204D6F64650A46312D62
:100870004631303A0953776974636820746F204CAD
:100880006179657220302D392028463130203D2095
:100890004C30290A302D393A09537769746368203E
:1008A000746F204C6179657220302D390A455343AD
:1008B0003A0953776974636820746F204C617965D5
:1008C0007220302028616C7465726E617465206BD3
:1008D00065792031290A47524156453A09537769CB
:1008E00074636820746F204C617965722030202811
:1008F000616C7465726E617465206B657920322954
:100900000A50415553453A094A756D7020746F205D
:10091000426F6F746C6F61646572202852657365F5
:1009200074290A453A095072696E7420454550523F
:100930004F4D2053657474696E67730A4E3A094EC1
:100940004B524F20546F67676C650A000A0025758B
:10095000002E6C6576656C3A20000A002575002E25
:10096000656E61626C653A20000A002530325800DD
:100970006261636B6C696768745F636F6E666967F9
:100980002E7261773A20000A002575002E6E6B7278
:100990006F3A20000A002575002E737761705F6240
:1009A00061636B736C6173685F6261636B737061C9
:1009B00063653A20000A002575002E737761705F29
:1009C00067726176655F6573633A20000A0025757A
:1009D000002E6E6F5F6775693A20000A002575006A
:1009E0002E737761705F72616C745F726775693ABC
:1009F00020000A002575002E737761705F6C616CB2
:100A0000745F6C6775693A20000A002575002E63D3
:100A10006170736C6F636B5F746F5F636F6E747222
:100A20006F6C3A20000A002575002E737761705FA5
:100A3000636F6E74726F6C5F636170736C6F636B06
:100A40003A20000A0025303258006B65796D6170DC
:100A50005F636F6E6669672E7261773A20000A00E5
:100A60002575002E6D6F7573653A20000A00257597
:100A7000002E6B6579626F6172643A20000A00256E
:100A800075002E6D61747269783A20000A00257530
:100A9000002E656E61626C653A20000A00253032D6
:100AA000580064656275675F636F6E6669672E7272
:100AB00061773A20000A0025750064656661756CEF
:100AC000745F6C617965723A20003F004E4B524F63
:100AD0003A206F66660A004E4B524F3A206F6E0AFC
:100AE000000A6D6F7573653A206F66660A000A6DBD
:100AF0006F7573653A206F6E0A000A6B6579626FD5
:100B00006172643A206F66660A000A6B6579626FEB
:100B10006172643A206F6E0A000A6D6174726978BE
:100B20003A206F66660A000A6D61747269783A202D
:100B30006F6E0A000A64656275673A206F66660A1E
:100B4000000A64656275673A206F6E0A000A0A4AF5
:100B5000756D70696E6720746F20626F6F746C6F53
:100B6000616465722E2E2E2000433E200065656371
:100B70006F6E6669673A0A006261636B6C696768E9
:100B80007420737465703A2025750A006261636B86
:100B90006C6967687420746F67676C653A202575A7
:100BA0000A006261636B6C696768742064656372D4
:100BB000656173653A2025750A006261636B6C6933
:100BC00067687420696E6372656173653A20257584
:100BD0000A005B735D004B6579626F61726420731C
:100BE000746172742E0A005B575D005B535D005B9D
:100BF000525D005B445D005B435D00040330000018
:100C0000001C0352006F00610064006B00690074F7
:100C10000020004D006900630072006F0000002298
:100C200003540068006500560061006E0020004B10
:100C3000006500790062006F00610072006400735B
:100C40000000000403090409028D00050100A03220
:100C50000904000001030101000921110100012222
:100C600040000705810308000A090401000103018F
:100C70000200092111010001224D0007058203082D
:100C8000000A09040200010300000009211101000B
:100C9000012236000705830308000A090403000245
:100CA0000300000009211101000122220007058430
:100CB00003200001070504032000010904040001CA
:100CC00003000000092111010001223900070585F8
:100CD000032000011201100100000008AEFE46884A
:100CE00003000102030105010906A101050719E03E
:100CF00029E71500250195087501810205081901EC
:100D00002905950575019102950175039101050766
:100D1000190029F71500250195F875018102C00613
:100D200031FF0974A1010975150026FF0095207592
:100D30000881020976150026FF00952075089102AA
:100D4000C005010980A10185021601002603001AD1
:100D500081002A8300751095018100C0050C0901EE
:100D6000A1018503160100269C021A01002A9C029B
:100D7000751095018100C005010902A1010901A1B9
:100D80000005091901290515002501950575018141
:100D9000029501750381010501093009311581258D
:100DA0007F95027508810609381581257F950175A3
:100DB000088106050C0A38021581257F9501750802
:100DC0008106C0C005010906A101050719E029E750
:100DD00015002501950875018102950175088101AD
:100DE00005081901290595057501910295017503FD
:100DF00091010507190029FF150026FF00950675CA
:100E0000088100C011241FBECFEFDAE0DEBFCDBFE6
:100E100004B603FE24C08091190290911A02A09199
:100E20001B02B0911C028730904BA740B04BB9F425
:100E30001092190210921A0210921B0210921C02B8
:100E400014BE84B7877F84BF88E10FB6F89480937F
:100E50006000109260000FBEE0E0F8E3099511E039
:100E6000A0E0B1E0EAE4FDE502C005900D92AE33EA
:100E7000B107D9F722E0AEE3B1E001C01D92A9317C
:100E8000B207E1F70E94D2280C94A32E0C94000024
:100E9000FF93EF93E0913E01F0913F01309709F00D
:100EA0000995EF91FF910895FC018591803011F033
:100EB000EFDFFBCF0895FF27E0E230E247FF0CC0F1
:100EC000419597FF09C0EDE26095709580959095EA
:100ED000611D711D811D911D27FF02C0219530E309
:100EE00050E2AA27660F771F881F991FAA1FA41711
:100EF00010F0A41B63955A95A9F7AA3008F0A95FD2
:100F0000A05DAF93F395611571058105910541F7DA
:100F1000ED3211F4EF93F395F21718F43F93F39534
:100F2000FBCF8F91B5DFFA95E1F70895E991F9913B
:100F30008591803021F0853219F0AADFF9CF08952C
:100F400020E0E89455915532C1F3503311F4689480
:100F500055915A3348F4505390F3220F022E220F2A
:100F6000220F200D250FF4CF0EF421958991999130
:100F7000533619F3533729F1533559F1BC018827FA
:100F80009927E8945C3621F4899199916894559158
:100F9000543639F446EF7EF077FF0DC08FEF9FEFA8
:100FA0000AC055374AE039F0583540E121F0523651
:100FB00042E009F00895FF93EF937DDFEF91FF91F9
:100FC000B7CFFF93EF93FC0181918030B9F360DFDD
:100FD000FBCFFF93EF9368DFF1CFDF93CF93CDB7D4
:100FE000DEB72596A3DFCF91DF9108950C94AB0C6B
:100FF0000C94AC0C0C9400080C94CC0981E008957E
:1010000081E008950E94F9132FEF84E39CE02150C2
:1010100080409040E1F700C000000C94C51B0F9386
:101020001F93CF93DF938C01FC01C081D181CE014E
:101030000E94E518BE010E94D309EC01B8010E948C
:10104000FA07882309F469C1B801CE010E945F0C38
:10105000882309F462C1C531FCE5DF0729F50E9448
:101060009819382FF8012281809100019091010197
:10107000222371F03A7A21E009F420E02093400124
:10108000222311F065E301C069E20E94BF1A09C082
:1010900020914001222311F065E301C069E20E9422
:1010A000CA1A0E94651939C1C6318CE5D80708F003
:1010B000A7C0C130ECE5DE0779F4F801828188230E
:1010C00009F42BC18091D00181608093D0018AEC1A
:1010D00091E00E94540721C1C230FCE5DF0708F40B
:1010E00078C0F8018281882309F47BC00E94071A26
:1010F000811102C00E94E8190E94241A90E0909386
:101100000A0280930902FE01E350FC45E231F10539
:1011100020F4EA5AFF4F0C94532E8091090281600B
:1011200003C0809109028260809309024BC08091C4
:1011300009028460F9CF8091090213C080910902ED
:101140008061F2CF809109028062EECF8091090226
:101150008064EACF809109028068E6CF809109021D
:1011600084608860E1CF809109028E7FDDCF80911D
:1011700009028D7FD9CF809109028B7FD5CF8091D5
:10118000090213C0809109028F7ECECF809109029F
:101190008F7DCACF809109028F7BC6CF80910902D3
:1011A0008F77C2CF809109028B7F877FBDCF9091CF
:1011B000090297FB882780F921E0822780FB97F9B5
:1011C00090930902809109020E94281A0E94F91343
:1011D000A4C0C115DC4561F081E080934501809396
:1011E0004601C801DF91CF911F910F910C94FE072A
:1011F000F8018281882309F490C00E9402088DC002
:10120000CD3CECE5DE0759F5F8018281882361F0D9
:10121000109246010E945E1B90934401809343010B
:1012200080E20E94F61079C080914601882321F067
:1012300080E20E94FD1071C08091430190914401B1
:101240000E94761B8F3A910598F780E20E94FD106C
:1012500088E20E94860F88E20E9495105EC0CE3C14
:10126000FCE5DF0708F044C0CB3C8CE5D80719F556
:10127000F8018281882351F0109245010E945E1B83
:10128000909342018093410182E0CBCF8091450150
:1012900081110FC080914101909142010E94761B03
:1012A0008F3A910530F486E20E94860F86E20E9412
:1012B000951082E0BECFCC3CDC4509F08DCFF80123
:1012C00082818111A5CF809146018111B1CF80919A
:1012D0004301909144010E94761B8F3A910508F0DA
:1012E000A7CF87E20E94860F87E20E949510A0CFC9
:1012F000C03DFCE5DF0731F4F8018281882369F005
:1013000080E009C0C13DDC4509F066CFF80182816B
:10131000882319F082E00E94782980E0DF91CF9144
:101320001F910F9108950C94F807823040F48111B9
:1013300006C0909180009F779093800006C08091B6
:10134000800080688093800081E090E09195819595
:10135000910921E030E08C37944110F420E030E036
:1013600031952195310930938900209388000895A3
:10137000259A2D9882E88093800089E180938100EE
:101380008FEF9FEF90938700809386000C945725F2
:101390000E94B8090C94F60708950C94FC0780E0AD
:1013A00090E008950895E72FF0E094E0899FE00D24
:1013B000F11D1124EE0FFF1FEE0FFF1FE60FF11DB1
:1013C000EE0FFF1FE65BFE4F859194910895880F05
:1013D000991F865B9E4FFC01859194910895CF9350
:1013E000DF930E94D3090E94B50BEC01811521E522
:1013F000920708F044C0C11580E5D80708F01FC166
:10140000C83ED10510F5C03ED10508F0AAC1C83AC2
:10141000D10578F4C53AD10508F09CC0C130D1059A
:1014200009F49FC108F456C1C430D10508F099C130
:1014300051C1CD3BD10508F498C0C03CD10508F49A
:1014400049C1CE01805C9109E9C0C11520E3D207F2
:1014500080F4C11580E2D80708F0DEC0C03FD10596
:1014600008F438C1CF3FD10511F008F07AC1D0653A
:1014700078C1C11520E4D20708F0DEC0D3C0C11581
:1014800086E5D80768F5C11525E5D20708F00DC136
:10149000C11583E5D80750F4C11522E5D20708F03D
:1014A000EAC0DC2FCC27C16FD06A5BC1C11584E5CF
:1014B000D80708F0F5C08C2F8695869520E2829F8C
:1014C000C00111249E0123703327C1E0D0E002C087
:1014D000CC0FDD1F2A95E2F7C82BD92BDA6841C162
:1014E000C53B2CE5D20709F4ECC098F4C33B2CE5CE
:1014F000D20709F4E0C008F0E1C0CE0198558F3F53
:10150000910511F008F0E6C0DC2FCC27C06FD06A3F
:1015100028C1C83B2CE5D20709F4D9C060F4C63B0A
:101520002CE5D20709F4D0C0C73BDC4509F0D2C096
:10153000C0E0D2ED16C1CE0190568115904208F060
:10154000C9C08D2F8F710E94310CDD27D0628F7141
:10155000D82B07C1C53AD10509F4BFC0C63AD10599
:1015600009F4BEC0C3E8D0E4FCC0C83AD10509F410
:10157000BAC0C93AD10509F4B9C0CA3AD10509F4CB
:10158000B8C0CB3AD10509F4B7C0CC3AD10509F4BB
:10159000B6C0CB3BD10509F4B5C0CC3BD10509F4AD
:1015A000B4C0CD3AD10509F4B3C0C03BD10509F4AC
:1015B000B2C0CE3AD10509F4B1C0CF3AD10509F491
:1015C000B0C0C13BD10509F4AFC0C23BD10509F49D
:1015D000AEC0C33BD10509F4ADC0C43BD10509F48D
:1015E000ACC0C53BD10509F4ABC0C63BD10509F47D
:1015F000AAC0C73BD10509F4A9C0C83BD10509F46D
:10160000A8C0C93BD10509F4A7C0CA3BD10509F060
:10161000A6C0CAE2D6E4A5C0CE019F700E94E70929
:10162000EC019FC0CE019927D3FF03C0EC01D86C19
:1016300098C0EC01D06C95C0DF70D06A92C02C2F9E
:10164000237081E090E002C0880F991F2A95E2F78D
:101650009C689E0174E0369527957A95E1F7237092
:10166000922BCF70C695C69520E2C29FE00111244F
:10167000C82BD92B76C08C2F8695869520E2829F29
:10168000C00111249E0123703327C1E0D0E002C0C5
:10169000CC0FDD1F2A95E2F7C82BD92BDC6861C07F
:1016A000DC2FCC27C46FD06A5CC0CF71DD27DC2F64
:1016B000CC27D06256C0C0E0D4ED53C0C0E0D5ED19
:1016C00050C0C0E0D1ED4DC0C0E0D0ED4AC0C0E098
:1016D000D3ED47C0C0E0D0E044C0C1E8D0E441C091
:1016E000C2E8D0E43EC0C2EED4E43BC0C9EED4E4CC
:1016F00038C0CAEED4E435C0C5EBD4E432C0C6EB82
:10170000D4E42FC0C3EBD4E42CC0C4EBD4E429C090
:10171000C7EBD4E426C0CCECD4E423C0CDECD4E4B5
:1017200020C0C3E8D5E41DC0CAE8D5E41AC0C2E9A8
:10173000D5E417C0C4E9D5E414C0C1E2D6E411C0B1
:10174000C3E2D6E40EC0C4E2D6E40BC0C5E2D6E4E0
:1017500008C0C6E2D6E405C0C7E2D6E402C0C0E0D5
:10176000D4E4CE01DF91CF9108958238910549F1FB
:10177000B0F48133910509F459C048F489329105D8
:1017800009F44FC08A32910509F455C00895853394
:10179000910509F441C08933910599F00895833E7C
:1017A000910531F138F4803E910591F0823E91052A
:1017B000A9F00895863E910501F1873E910539F122
:1017C00008952091090220FD3BC021FD39C00895F4
:1017D0008091090280FF34C089E341C080910902F1
:1017E00082FF32C08091090284FF2CC080E037C0A4
:1017F0008091090282FD28C0F5CF8091090283FF04
:1018000025C08091090284FDF1CF87EE28C0809128
:10181000090283FD1BC0F5CF8091090285FF18C026
:1018200019C08091090285FF15C012C0809109027C
:1018300086FF12C013C08091090286FF0FC00CC042
:1018400080EE0DC083EE0BC082EE09C086EE07C0AD
:1018500085E305C089E203C081E301C08AE290E02C
:101860000895CF93C82F0E94241A282F30E0309378
:101870000A022093090282FF0DC08C2F88718830E4
:1018800019F4C77FC46006C08C2F8471843011F4B2
:10189000CB7FC86023FF0DC08C2F8871883119F46D
:1018A000C77EC46106C08C2F8471843111F4CB7E55
:1018B000C86124FDC77E8C2FCF9108950895CF93E2
:1018C000DF93EC01FB018281811102C081E040C005
:1018D00080915401811125C0C631DC45B9F70E94C1
:1018E0005E0C81E0809354010E945E1B9093530133
:1018F00080935201109247011092490110924801C1
:1019000010924B0110924A0110924D0110924C011D
:1019100010924F0110924E011092510110925001FD
:1019200016C080915201909153010E94761B883C11
:10193000910560F680914701E82FF0E0EE0FFF1F60
:10194000E85BFE4FD183C0838F5F8093470180E0C7
:10195000DF91CF9108950895089585B7806885BF78
:1019600085B7806885BFA7E1B1E021E030E08D91C7
:10197000E82FE295EF70F0E041A18F70B90102C04D
:10198000660F771F8A95E2F7CB01962F9095492332
:1019900041A392A1982B92A371E0AB31B70739F71D
:1019A000A3E1B1E021E030E08D91E82FE295EF7006
:1019B000F0E041A18F70B90102C0660F771F8A95D0
:1019C000E2F7CB01962F9095492341A392A1982B42
:1019D00092A371E0A731B70739F71092590110921D
:1019E000550110925A011092560110925B0110920B
:1019F000570110925C01109258010C94C8096F9223
:101A00007F929F92AF92BF92CF92DF92EF92FF921E
:101A10000F931F93CF93DF9307E111E0C5E5D1E06A
:101A2000EE24E394F12CBB24B394AE019880188289
:101A3000D8012D918D01E22FE295EF70F0E081A1A8
:101A40002F70B70102C0660F771F2A95E2F79B013E
:101A5000862B81A382A1A62EA0948A2182A370EA5C
:101A60007A95F1F763E1662E61E0762E80E090E0F2
:101A7000D3017D913D01C72EC2943FE0C322D12CFA
:101A8000D6019096DC90C8807F70D70102C0AA0F63
:101A9000BB1F7A95E2F7DA2239F46E2D082E01C0C9
:101AA000660F0A94EAF701C060E06C29688301962A
:101AB00084309105E9F681A18A2181A382A1822B3C
:101AC00082A32196FA018081981641F0B0925D01BF
:101AD0000E945E1B90935F0180935E01F1E00B31E9
:101AE0001F0709F0A2CF80915D018823D1F080917A
:101AF0005E0190915F010E94761B069790F08091A5
:101B00005501809359018091560180935A0180912B
:101B1000570180935B018091580180935C01109282
:101B20005D010E94930981E0DF91CF911F910F9198
:101B3000FF90EF90DF90CF90BF90AF909F907F90FD
:101B40006F900895E82FF0E0E75AFE4F80810895E6
:101B5000CF92DF92EF92FF920F931F93CF93DF9379
:101B60008AEE91E00E945407E9E5EE2EE1E0FE2EB8
:101B7000C0E0D0E0F5EECF2EF1E0DF2E0DED11E06C
:101B8000DF93CF93DF92CF920E94ED0782EE91E038
:101B90000E945407F70181917F010E94D6191F927C
:101BA0008F931F930F930E94ED078BED91E00E949E
:101BB000540721968DB79EB708960FB6F8949EBF2E
:101BC0000FBE8DBFC430D105D9F6DF91CF911F91E3
:101BD0000F91FF90EF90DF90CF9008959093650163
:101BE000809364010895E0916401F091650130975C
:101BF00021F00190F081E02D099480E00895FF929A
:101C00000F931F93CF93DF938C01E0916401F091C8
:101C10006501309799F10280F381E02D099580915B
:101C2000D00182FF2BC080FF04C081E092E00E94BF
:101C30005407E80180E2F82E0BEF11E08091D0010B
:101C400080FF0BC088811F928F931F930F930E9478
:101C5000ED070F900F900F900F90FA942196F110CE
:101C6000EDCF8091D00180FF09C089EF91E0DF9135
:101C7000CF911F910F91FF900C945407DF91CF915A
:101C80001F910F91FF900895E0916401F09165011B
:101C9000309721F00480F581E02D0994089520917A
:101CA0006201309163018217930771F09093630191
:101CB00080936201E0916401F0916501309721F019
:101CC0000680F781E02D09940895209160013091FC
:101CD00061018217930771F0909361018093600115
:101CE000E0916401F0916501309721F00084F18565
:101CF000E02D0994089508950C947B0E81E00895D9
:101D00000E94551B0E94AD0C0E942E1C0C9457255E
:101D1000CF93C82F8091D00182FF1EC080FF04C0E6
:101D20008AE192E00E9454078091D00180FF0CC0AC
:101D30001F92CF9325E132E03F932F930E94ED074E
:101D40000F900F900F900F908091D00180FF04C0F2
:101D500083E192E00E9454078C2FCF910C94CD091F
:101D6000CF92DF92EF92FF920F931F93CF93DF9367
:101D7000CDB7DEB72B970FB6F894DEBF0FBECDBF41
:101D80000E94FF0C0E947E0E811111C08FEF89838B
:101D90008A831B820E945E1B8160782F9D838C83C7
:101DA00049815A816B818D810E94580F56C037E658
:101DB000E32E31E0F32E00E010E0C02E802F0E94D1
:101DC000A20DF701D1907F01D82631F40F5F1F4F8C
:101DD0000430110591F7DACF9091D00191FF04C042
:101DE0008B870E94A80D8B8520E030E04D2D50E0C0
:101DF000922FBA01022E02C0759567950A94E2F7F8
:101E000060FF25C02E83CF82EE24E394F12C02C024
:101E1000EE0CFF1C9A95E2F790E08E219F2121E0C5
:101E2000892B09F420E028870E945E1B8160782FAF
:101E30009A8789874E815F8168858A850E94580FBD
:101E4000F801E959FE4F80818E25808306C02F5FFF
:101E50003F4F2430310561F6B9CF0E94581F1091D1
:101E600066010E94F30D1817A1F00E94F30D8093F4
:101E700066012B960FB6F894DEBF0FBECDBFDF9183
:101E8000CF911F910F91FF90EF90DF90CF900C9426
:101E9000880E2B960FB6F894DEBF0FBECDBFDF9134
:101EA000CF911F910F91FF90EF90DF90CF90089509
:101EB000CF93DF93CDB7DEB72B970FB6F894DEBF85
:101EC0000FBECDBF4F83588769877A878B87DE0126
:101ED000119686E0FD0111928A95E9F785E0FE01F1
:101EE000379601900D928A95E1F749815A816B816D
:101EF0007C818D819E810E94C3162B960FB6F8942B
:101F0000DEBF0FBECDBFDF91CF910895CF93DF939A
:101F10001F92CDB7DEB7682F882309F402C182383B
:101F2000C1F40E94F30D81FDFCC069E380910001C2
:101F3000909101010E94BF1A0E9465192FEF81EE56
:101F400094E0215080409040E1F700C0000069E338
:101F500019C0833811F50E94F30D80FDE2C063E5DE
:101F600080910001909101010E94BF1A0E946519A1
:101F7000EFEFF1EE24E0E150F0402040E1F700C047
:101F8000000063E580910001909101010E94CA1A4E
:101F90000F90DF91CF910C9465198438C1F40E94A1
:101FA000F30D82FDBEC067E48091000190910101B4
:101FB0000E94BF1A0E9465198FEF91EEE4E08150F4
:101FC0009040E040E1F700C0000067E4DBCF8CEF19
:101FD000860F813A70F4862F69830E9408246981F4
:101FE00081119FC080910001909101010E94BF1A50
:101FF000CFCF80E2860F883048F4677081E001C05F
:10200000880F6A95EAF70E949B19C2CF8BE5860F6D
:10201000833088F4653A29F0663A31F482E890E03A
:1020200005C081E890E002C083E890E00F90DF9166
:10203000CF910C944F0E88E5860F853108F071C062
:10204000683A61F1693A69F16A3A71F16B3A79F18A
:102050006C3A81F16B3B89F16C3B91F16D3A99F1EE
:10206000603BA1F16E3AA9F16F3AB1F1613BB9F170
:10207000623BC1F1633BC9F1643BD1F1653BD9F1EE
:10208000663BE1F1673BE9F1683BF1F1693BF9F14E
:102090006A3B09F03FC08AE292E03EC082EE90E0E7
:1020A0003BC089EE90E038C08AEE90E035C085EB09
:1020B00090E032C086EB90E02FC083EB90E02CC024
:1020C00084EB90E029C087EB90E026C08CEC90E098
:1020D00023C08DEC90E020C083E891E01DC08AE829
:1020E00091E01AC082E991E017C084E991E014C040
:1020F00081E292E011C083E292E00EC084E292E0BD
:102100000BC085E292E008C086E292E005C087E25B
:1021100092E002C080E090E00F90DF91CF910C94AC
:10212000650E0F90DF91CF910895882309F45DC06B
:10213000823879F40E94F30D81FF57C069E38091E2
:102140000001909101010E94BF1A0E94651969E384
:1021500010C08338B1F40E94F30D80FF46C063E5E0
:1021600080910001909101010E94BF1A0E9465199F
:1021700063E580910001909101010E94CA1A0C94BC
:102180006519843879F40E94F30D82FF2EC067E44C
:1021900080910001909101010E94BF1A0E9465196F
:1021A00067E4E7CF9CEF980F913A10F4682FE1CFE6
:1021B00090E2980F983050F4877091E001C0990F29
:1021C0008A95EAF7892F0E94A119D9CF9BE5980F2C
:1021D000933020F480E090E00C944F0E885A8531C3
:1021E00020F480E090E00C94650E0895882321F09F
:1021F0000E949B190C9465190895882321F00E9470
:10220000A1190C94651908958F929F92BF92CF9255
:10221000DF92EF92FF920F931F93CF93DF9300D043
:10222000CDB7DEB74C01472FFC01C580C2949FE0BB
:10223000C922D280DD2031F079836A830E94B819E7
:102240006A81498149836A830E945E1949816A8152
:10225000882389F0DD2079F080E2860F883058F0FD
:1022600082E00E9447190E945E19BB24B394B826ED
:1022700049816A8101C0B12CE42EE2948FE0E8220A
:10228000F12CF701E859FF4F0C94532E842F807FD7
:10229000142F1F70882311F01295107FDD20C1F0DC
:1022A000112309F4DDC180E2860F883010F061113E
:1022B00005C0812F6A830E949B1904C0812F6A8305
:1022C0000E94AB196A816A830E9465196A81C8C13C
:1022D000862F6A830E9495106A81112309F407C230
:1022E00080E2860F883010F0611104C0812F0E94B7
:1022F000A11903C0812F0E94B1190E946519F7C16D
:10230000242F207F842F8F70203211F08295807FC0
:10231000662319F06130B9F022C0DD2049F0CC20ED
:1023200009F452C1F1E0CF124FC10E94CB19DFC1B5
:10233000CC2021F021E0C21609F4D9C189830E9482
:10234000CE19898147C1DD2029F095E09C1508F45C
:10235000CEC13AC1E4E0EC1508F4C9C13BC1DD20AF
:1023600051F0CC2009F430C1F401958190FF78C17F
:102370009F70958329C1CC2009F42CC182C1242FE0
:1023800026952695237030E02115310521F0213066
:10239000310561F0ACC1DD2021F0862F942F9370C0
:1023A00002C080E090E00E944F0EB1C1DD2021F01C
:1023B000862F942F937002C080E090E00E94650EFB
:1023C000A6C1DD20F9F0653F51F0663F71F0643F32
:1023D000A9F4809103029091040281600BC0809166
:1023E000030290910402826005C0809103029091E3
:1023F000040284609093040280930302862F0E945B
:10240000DE1D22C0653F51F0663F91F0643FC9F484
:1024100080910302909104028E7F05C08091030297
:10242000909104028D7F909304028093030209C06F
:1024300020910302309104022B7F309304022093F9
:102440000302862F0E94461E0E94CB1E60C1842F6D
:10245000837009F04EC0D11056C1262F22952695C3
:102460002770220F220F862F8F70C82ED12CE12CBF
:10247000F12C022E04C0CC0CDD1CEE1CFF1C0A94B7
:10248000D2F764FF10C06FE070E080E090E004C01D
:10249000660F771F881F991F2A95D2F76095709550
:1024A0008095909503C060E070E0CB01242F2695C5
:1024B0002695237030E02230310569F02330310554
:1024C00089F06C297D298E299F292130310571F0F1
:1024D0000E94121818C16C297D298E299F290E94FB
:1024E000241811C10E941218C701B6010E940018D9
:1024F0000AC1DD2019F0842F817001C086958823E0
:1025000009F401C1262F229526952770220F220F4C
:10251000862F8F70C82ED12CE12CF12C022E04C0F6
:10252000CC0CDD1CEE1CFF1C0A94D2F764FF10C01B
:102530006FE070E080E090E004C0660F771F881FB6
:10254000991F2A95D2F7609570958095909503C054
:1025500060E070E0CB01242F26952695237030E0B3
:102560002230310569F02330310589F06C297D294D
:102570008E299F292130310571F00E94C018C3C0F7
:102580006C297D298E299F290E94D218BCC00E94E7
:10259000C018C701B6010E94AE18B5C0062F10E0E2
:1025A000F801E05EF109E531F10508F055C0E858A1
:1025B000FF4F0C94532E162F1F70842F8F71DD2028
:1025C00031F00E945918812F0E94F61090C00E948D
:1025D0007418812F0E94FD108AC0DD2049F0F4E0BC
:1025E000FC1508F484C0842F8F710E9493187FC05B
:1025F00025E02C1508F47BC0F6CFDD2039F0842FC0
:102600008F710E94591873C0DD20C9F3842F8F7118
:102610000E9474186CC0DD2029F0842F8F710E94F5
:102620004A1865C00E94451862C0DD2051F0142F81
:102630001F71812F0E94591863E0812F0E943E195B
:1026400056C081E00E94471981E08C1508F04FC008
:1026500082E00E9447194BC0DD2031F0CC2079F296
:10266000862F0E94860F43C0CC2081F2693349F443
:102670009FEFE7EEF3E09150E040F040E1F700C05B
:102680000000862F0E94951032C04F70C4010E9436
:10269000CF090E9470173BC0D11039C0942F9F7092
:1026A000892F90E08230910599F03CF4009769F011
:1026B0000197E9F40E949C252AC08430910571F0AD
:1026C00054F00597A1F480E00AC00E9474251FC051
:1026D0000E94CB251CC00E94F82519C081E00E94F1
:1026E000302615C04F70C4010E94D20910C028E0E6
:1026F000E216F10441F05CF09AE0E91AF108E2E038
:10270000EE16F10420F40E94F30D0E94CD09BB20C7
:10271000F1F00E943A1980FD1AC0F40112820E9461
:1027200034190E945918C4010E94B5130E9434192B
:102730000F900F90DF91CF911F910F91FF90EF902D
:10274000DF90CF90BF909F908F900C9474180F9053
:102750000F90DF91CF911F910F91FF90EF90DF903D
:10276000CF90BF909F908F9008950F931F93CF931A
:10277000DF93EC01288139818B819C81892B31F099
:102780003F3F11F080E003C02F3FE1F781E081116E
:1027900013C0CE010E940F08882371F068817981EF
:1027A0008A810E9430198C010E94E4180E94FD1752
:1027B000B801CE010E940411DF91CF911F910F91BA
:1027C00008950E94B8190E94C81980910001909143
:1027D00001010E94D51A0E9465190E94E11F0E9402
:1027E000CB1E80E090E00E944F0E80E090E00C94C1
:1027F000650E0E94A8190C94E1130E942519E92F77
:10280000E295EF70F0E03297EE30F105B8F4E3575F
:10281000FF4F0C94532E803F59F018F4803E70F413
:1028200007C0843F59F404C0803E10F0813F31F46A
:1028300081E0089593FB882780F9089580E008954A
:10284000CF93DF9300D000D01F92CDB7DEB70F90AB
:102850000F900F900F900F90DF91CF910895CF932D
:10286000DF9300D000D000D0CDB7DEB726960FB6EC
:10287000F894DEBF0FBECDBFDF91CF9108951F93B7
:10288000CF93DF93C0916B0116E080916C01C81764
:1028900099F0D0E01C9FF0011D9FF00D1124E35929
:1028A000FE4F4081518162817381848195810E94B4
:1028B0002F142196C770E9CFDF91CF911F91089512
:1028C00040919D0150919E0160919F017091A001E6
:1028D0008091A1019091A2010C942F14CF9380912B
:1028E000A20182958F7009F05FC080919F018823BB
:1028F00009F45AC020916B01A0916C0160919D0177
:1029000070919E018091A0019091A10131E06F3FF3
:1029100009F030E0B32FC6E02A1709F445C000974C
:1029200021F07F3F21F44B2F03C041E001C040E084
:1029300030E040FD35C0C29FF001C39FF00D11246F
:10294000E359FE4F418174132BC04081641328C0AA
:102950004281411125C0438154814817590710F421
:1029600041505109481B590B4F3A5105C8F4809109
:10297000A2018F7080618093A20186E0829FF001A6
:10298000839FF00D1124EE58FE4F80818F7080617F
:1029900080838DE991E00E94B513CF910C943F1490
:1029A0002F5F3F4F2770B8CFCF910895CF92DF921E
:1029B000EF92FF920F931F93CF93DF93CDB7DEB7C4
:1029C00062970FB6F894DEBF0FBECDBF8C0185E0D5
:1029D000F801DE011D9601900D928A95E1F7D8016C
:1029E0004C9111965C91119712966C9112971396D7
:1029F000ED90FC90149770919D01E0919E012091C3
:102A0000A0013091A1012115310531F0EF3F31F4E2
:102A100081E07F3F19F403C081E001C080E0B82F5E
:102A2000B170CB2E80FD6CC1D0909F01DD2009F4E8
:102A3000F5C0F091A201E216F30638F0C701821B3F
:102A4000930B8F3A910548F09BC0209530952E0D41
:102A50003F1D2F3A310508F093C08F2F807F09F07A
:102A600052C0E51314C0741312C0D62E61110FC0EA
:102A7000FF70F061F093A2010E9460148DE991E073
:102A80000E94B5138091A201F80185836CC1EF28E3
:102A900031F05F3F31F481E04F3F19F403C081E032
:102AA00001C080E080FD03C081E0862701C080E096
:102AB000F82FF170FF2E80FF1CC080916B012091D8
:102AC0006C0136E0821709F428C190E0389FF001CC
:102AD000399FF00D1124E359FE4F7181571306C041
:102AE0007081471303C07281671303C0019687701A
:102AF000E9CFD62E662309F436C18091A201816008
:102B00008093A20153C0E51308C0741306C061117D
:102B100004C0D8011596FC93AEC04D875E878D85A5
:102B20009E856A8B0E94FD136A89882329F1D62E1F
:102B3000662311F12091A201822F82958F7090E07F
:102B400002970CF460C080919D0190919E0198873E
:102B50008F831986FB86EA862C87CE01079651C0A3
:102B6000E51731F14D875E878D859E856A8B0E94C2
:102B7000FD136A8981112EC0C8010E94B513A4C03B
:102B80008F2F807F69F77E2DF98AE88A89890E94D4
:102B900020148DE991E00E94B513EDE9F1E086E0A3
:102BA000DF011D928A95E9F70E946014D12CDBC0E9
:102BB0007413D8CF6111D6CFD8011596FC93C801F4
:102BC0000E94B513EDE9F1E086E0DF011D928A95E0
:102BD000E9F7C9C0D62E662379F22091A201822F8F
:102BE00082958F7090E0029774F080919D01909192
:102BF0009E019A8389831B82FD82EC822E83CE0103
:102C000001960E94B51386E0F801ADE9B1E00190AC
:102C10000D928A95E1F70E946E146FC0E216F306DA
:102C200028F0C701821B930B9C0104C020953095AE
:102C30002E0D3F1D2F3A310508F052C0D62E6623C7
:102C400009F49ACFE5132CC074132AC08091A20115
:102C500080FD1DC0982F92959F70C9F0D8011596E0
:102C60008C9315979F3039F09F5F9295907F8F706E
:102C7000892B15968C93C8010E94B51386E0F80144
:102C8000ADE9B1E001900D928A95E1F736C086E09A
:102C9000F801ADE9B1E001900D928A95E1F763C0CA
:102CA0004D875E878D859E850E94FD13882379F070
:102CB00086E0F801ADE9B1E001900D928A95E1F767
:102CC0000E946E140E946014DD24D3944CC0809145
:102CD000A20181608093A201C8010E94B51343C084
:102CE0007E2DF98AE88A89890E942014EDE9F1E0B5
:102CF00086E0DF011D928A95E9F70E94601433C0D7
:102D0000662309F439CF4D875E878D859E850E94A5
:102D1000FD13882309F430CFCBCF4D875E878D8597
:102D20009E850E942519292F22952F7030E0223090
:102D300031052CF49F7041F0811106C00CC0243085
:102D400031052CF49F7049F4805E883020F0C80172
:102D50000E94B513CF2CDC2C06C0D80115969C918F
:102D6000907F91F7F8CF8D2D62960FB6F894DEBF65
:102D70000FBECDBFDF91CF911F910F91FF90EF90CC
:102D8000DF90CF9008951F93CF93DF93CDB7DEB739
:102D90002C970FB6F894DEBF0FBECDBF4F83588778
:102DA00069877A878B879C87CE0107960E94D61405
:102DB0008823C1F02F8138858A859B85892B31F046
:102DC0003F3F11F080E003C02F3FE1F781E0811128
:102DD00047C04F81588569857A858B859C850E947F
:102DE0002F143EC086E0FE013796DE011196019059
:102DF0000D928A95E1F7FF81E8854A855B8541154B
:102E0000510531F0EF3F31F481E0FF3F19F403C089
:102E100081E001C080E080FD23C020916C0130E0A2
:102E2000C90101968770992760916B0170E0861740
:102E30009707F1F1F983EA835D834C8396E0929FD3
:102E4000D001939FB00D1124A359BE4FFE013196BE
:102E500001900D929A95E1F780936C010E943F14C6
:102E600016E080916B0190916C01891779F1189FA0
:102E7000C001112483599E4F0E94D614882331F13A
:102E8000E0916B011E9FF0011124E359FE4F408138
:102E9000518162817381848195810E942F14809178
:102EA0006B0190E001968770992780936B01D9CFD1
:102EB0000E94F91310926C0110926B01EDE9F1E0A0
:102EC00086E0DF011D928A95E9F7CACF2C960FB6EE
:102ED000F894DEBF0FBECDBFDF91CF911F91089553
:102EE000EF92FF920F931F93CF93DF93FC01009714
:102EF00009F46FC0F12CEE24E394EF012196849144
:102F0000843740F4843008F055C0813081F082303D
:102F100021F15FC0853709F447C0C0F19CE7980FE5
:102F2000903708F056C08F770E94951045C08F01EA
:102F30000E5F1F4FFE01849190E2980F983050F47D
:102F40008770FE2D01C0FF0F8A95EAF78F2F0E9430
:102F5000BB1915C00E94860F14C08F010E5F1F4F52
:102F6000FE01849190E2980F983068F48770FE2DEE
:102F700001C0FF0F8A95EAF78F2F0E94C1190E94A6
:102F80006519E80119C00E949510FBCFCF01029688
:102F9000FE01C491CC2361F0EFE9FFE03197F1F736
:102FA00000C00000C150F6CFCF010296FE01F490A0
:102FB000EC0102C00E94860F8F2D882341F0EFE9BB
:102FC000FFE03197F1F700C000008150F6CFFE011D
:102FD00094CFDF91CF911F910F91FF90EF900895C3
:102FE00008950E94F0176093A7017093A801809341
:102FF000A9019093AA010C94E11308950C94F11780
:103000000F931F930091A7011091A8012091A9018E
:103010003091AA01602B712B822B932B1F910F9162
:103020000C94F1170F931F930091A7011091A80121
:103030002091A9013091AA01602371238223932357
:103040001F910F910C94F1170F931F930091A701FB
:103050001091A8012091A9013091AA016027712740
:10306000822793271F910F910C94F11708950C94C8
:1030700036180E9437186093A3017093A4018093BF
:10308000A5019093A6010C94E11360E070E0CB01E0
:103090000C94391841E050E060E070E004C0440F47
:1030A000551F661F771F8A95D2F7CB01BA010C9482
:1030B000391841E050E060E070E004C0440F551F53
:1030C000661F771F8A95D2F78091A3019091A40182
:1030D000A091A501B091A601482B592B6A2B7B2BFF
:1030E000CB01BA010C94391841E050E060E070E087
:1030F00004C0440F551F661F771F8A95D2F740956D
:103100005095609570958091A3019091A401A09134
:10311000A501B091A601482359236A237B23CB0143
:10312000BA010C94391841E050E060E070E004C04E
:10313000440F551F661F771F8A95D2F78091A30110
:103140009091A401A091A501B091A601482759270B
:103150006A277B27CB01BA010C9439180F931F9370
:103160000091A3011091A4012091A5013091A60125
:10317000602B712B822B932B1F910F910C9439187C
:103180000F931F930091A3011091A4012091A50119
:103190003091A60160237123822393231F910F9105
:1031A0000C9439180F931F930091A3011091A4015F
:1031B0002091A5013091A6016027712782279327CE
:1031C0001F910F910C9439180895CF92DF92EF92CE
:1031D000FF920F931F93CF93DF93EC01C090A70151
:1031E000D090A801E090A901F090AA018091A301DC
:1031F0009091A401A091A501B091A601C82AD92A55
:10320000EA2AFB2A0FE110E0B701A601002E04C054
:1032100076956795579547950A94D2F740FD05C076
:103220000150110988F780E007C0BE01802F0E947D
:10323000EF090197A9F3802FDF91CF911F910F9193
:10324000FF90EF90DF90CF900895CF93DF93EC0144
:103250000E94E518BE010E94EF09DF91CF91089509
:10326000CB010E94251908958091AB018595859524
:10327000859508958091AB018770089598E0899FA6
:1032800090011124622B6093AB010C94591840916A
:10329000AB01809584238093AB01982F977069F4DC
:1032A00050E0282F332727FD30954217530729F088
:1032B0008595859585950C94741808959091AB012A
:1032C000977081E009F480E00895E0910001F091A9
:1032D00001018091CF018083E0910001F091010113
:1032E00080819091CE01892B8083E0910001F09143
:1032F000010180819091CD01892B80839091AC0157
:10330000992381F0E0910001F09101018081892BE6
:10331000808380910001909101010E94361A8111F1
:103320001092AC0180910001909101010C94FF0D6D
:103330008091CF0108959091CF01982B9093CF0168
:10334000089580959091CF0198239093CF0108958F
:103350001092CF0108959091CE01982B9093CE01B9
:10336000089580959091CE0198239093CE01089571
:103370001092CE0108959091CD01982B9093CD019C
:10338000089580959091CD0198239093CD01089553
:103390001092CD0108958093AC0108951092AC0174
:1033A000089590933F0180933E0108958295982F50
:1033B0009C7C96959695837344E0849F900111249C
:1033C000922B892F8A7A86959575990F892B089566
:1033D0006DEE7EEF80E090E00E948D2E60E082E056
:1033E00090E00E947B2E60E083E090E00E947B2EC4
:1033F00060E084E090E00E947B2E60E085E090E059
:103400000E947B2E60E086E090E00C947B2E80E0B2
:1034100090E00E94752E21E08D3E9E4F09F020E045
:10342000822F089582E090E00C946D2E682F82E048
:1034300090E00C947B2E83E090E00C946D2E682F2E
:1034400083E090E00C947B2E84E090E00C946D2E51
:10345000682F84E090E00C947B2E86E090E00C9442
:103460006D2E682F86E090E00C947B2E20E030E0FB
:1034700040E0FC01E20FF31F518151114F5F2F5FBC
:103480003F4F2F313105A9F7842F089520E030E018
:103490004FEFFC01E20FF31F5281561799F04F3F97
:1034A00019F4511101C0422F2F5F3F4F2E313105CA
:1034B00081F74F3F39F0FC01E40FF11D47FDFA950C
:1034C00062830895089520E030E0FC01E20FF31FCD
:1034D0004281461301C012822F5F3F4F2E313105CA
:1034E000A1F70895262F2695269526952F3178F455
:1034F000FC01E20FF11D677021E030E0062E01C0F3
:10350000220F0A94EAF78181822B818308958091AA
:10351000D00180FF0CC01F926F938BE492E09F93C9
:103520008F930E94ED070F900F900F900F900895CA
:10353000262F2695269526952F3180F4FC01E20F43
:10354000F11D677021E030E0062E01C0220F0A94C1
:10355000EAF7209581812823218308958091D00165
:1035600080FF0CC01F926F938DE292E09F938F9328
:103570000E94ED070F900F900F900F9008952091EB
:103580001201222329F02091090227FD0C94721ABE
:103590000C94461A20911201222329F0209109024D
:1035A00027FD0C94981A0C94631A20E030E0FC017B
:1035B000E20FF31F11822F5F3F4F2F313105B9F713
:1035C000089580911002843039F11092D10120E4E5
:1035D00088E190E00FB6F894A895809360000FBE44
:1035E0002093600080E00E94950980E00E94CD0950
:1035F00083B7817F846083BF83B7816083BF789402
:10360000889583B78E7F83BF88E10FB6F894809347
:103610006000109260000FBE089508950895CF9342
:103620000E940D1B0E94FF0C0E940E1BC0E08C2FFD
:103630000E94A20D811105C0CF5FC430C1F780E0A8
:1036400001C081E0CF9108950E94F9130E9457258F
:103650000E94F30D0C94CD091F920F920FB60F929A
:1036600011248F939F93AF93BF938091D1018111C8
:1036700013C08091050290910602A0910702B091BB
:1036800008024196A11DB11D809305029093060288
:10369000A0930702B0930802BF91AF919F918F91C1
:1036A0000F900FBE0F901F90189582E084BD93E09D
:1036B00095BD9AEF97BD80936E0008952FB7F8944B
:1036C0008091050290910602A0910702B091080234
:1036D0002FBF08952FB7F8946091050270910602EC
:1036E00080910702909108022FBF0895CF92DF9238
:1036F000EF92FF920F931F932FB7F894409105021A
:103700005091060260910702709108022FBF6A0172
:103710007B01EE24FF248C0120E030E0C016D106AE
:10372000E206F30610F441505109481B590BCA0137
:103730001F910F91FF90EF90DF90CF9008957894B4
:103740001F920F920FB60F9211248F939F93AF93F6
:10375000BF938091050290910602A0910702B0915B
:1037600008020196A11DB11D8093050290930602E7
:10377000A0930702B0930802BF91AF919F918F91E0
:103780000F900FBE0F901F90189581E08093E0007E
:1037900080E28093D8001092C9008FE19EE40197E7
:1037A000F1F700C0000087E090EBDC018093190284
:1037B00090931A02A0931B02B0931C022CE088E1A4
:1037C00090E00FB6F894A895809360000FBE209308
:1037D0006000FFCFDF92EF92FF920F931F93CF9382
:1037E000DF93D12C082F10E08D2D0E94A20DC0E098
:1037F000D0E0E82EF12C97010C2E02C035952795CC
:103800000A94E2F720FD05C02196C430D10599F74E
:103810000AC06C2F7D2D80E00E94D309081719077C
:1038200099F781E005C0D39484E0D812DDCF80E021
:10383000DF91CF911F910F91FF90EF90DF9008954E
:10384000CF93C82F8CE20E94EA1B882321F08C2F93
:10385000CF910C94EA1B80E0CF910895CF930E9402
:10386000071A811102C00E94E81980E792E00E94C5
:103870005407C5E6C15049F00E94FF0C8FE39CE954
:103880000197F1F700C00000F5CF89E692E00E94B1
:10389000540789E20E94201C81110DC18AE20E9416
:1038A000201C81110E94E81985E00E94201C8111D2
:1038B0000E94C51B0E94121A8093D00187E00E94CB
:1038C000201C882399F18BE10E94201C882351F051
:1038D0009091D00191FB882780F921E0822780FB1D
:1038E00091F922C08EE00E94201C882351F0909113
:1038F000D00192FB882780F921E0822780FB92F992
:1039000013C080E10E94201C9091D001882341F0D7
:1039100093FB882780F921E0822780FB93F904C07C
:10392000892F809580FB90F99093D0018091D001F0
:103930000E94161A0E94241A90E090930A02809323
:10394000090280EE0E94201C882341F08091090228
:10395000982F909590FB80F98093090289E30E944B
:10396000201C882359F09091090291FB882780F947
:1039700021E0822780FB91F99093090282EE0E9458
:10398000201C882359F09091090292FB882780F926
:1039900021E0822780FB92F99093090286EE0E9433
:1039A000201C882359F09091090293FB882780F905
:1039B00021E0822780FB93F99093090283EE0E9415
:1039C000201C882359F09091090294FB882780F9E4
:1039D00021E0822780FB94F99093090285E30E94FD
:1039E000201C882359F09091090295FB882780F9C3
:1039F00021E0822780FB95F99093090281E30E94E0
:103A0000201C882359F09091090296FB882780F9A1
:103A100021E0822780FB96F99093090281E10E94C0
:103A2000201C882359F09091090297FB882780F980
:103A300021E0822780FB97F9909309028091090287
:103A40000E94281A87E20E94201CC82F8EE10E9443
:103A5000201C8111C2608FE10E94201C8111C46072
:103A600080E20E94201C8111C86081E20E94201C1B
:103A70008111C06182E20E94201C8111C06283E238
:103A80000E94201C8111C06484E20E94201C8823B3
:103A900011F0C06802C0CC2329F08C2F0E941F1A9D
:103AA0006C2F03C00E941B1A682F70E080E090E02A
:103AB000CF910C94FE17CF9108958091D40180FF8F
:103AC0000BC06091050185E0689FB00111247595D8
:103AD0006795759567952AC081FF09C060910501BA
:103AE00085E0689FB0011124759567951FC082FF1E
:103AF00007C06091050185E0689FB001112416C0E0
:103B00004091D5014423C9F060910401461788F71C
:103B10002091050185E0289F90011124429FC0015A
:103B2000439F900D112470E00E943F2E6038710574
:103B300040F46115710539F002C065E070E0862F30
:103B400008958FE7089581E008958091D40180FF62
:103B500008C06091030170E075956795759567954C
:103B600021C081FF06C06091030170E075956795E3
:103B700019C082FF04C06091030170E010C0809101
:103B8000D5018823C1F0609102018617A0F79091BA
:103B90000301989FC001112470E00E943F2E6038FD
:103BA000710528F46115710521F0862F08958FE7BE
:103BB000089581E0089561E070E0F4CF803F21F442
:103BC0000E945D1D819504C0813F29F40E945D1D06
:103BD0008093D8010895823F21F40E945D1D819554
:103BE00004C0833F29F40E945D1D8093D70108958E
:103BF000893F19F40E94A51D05C08A3F31F40E9437
:103C0000A51D81958093D90108958B3F21F40E94D1
:103C1000A51D819504C08C3F29F40E94A51D8093A9
:103C2000DA010895843F21F48091D601816017C0A4
:103C3000853F21F48091D601826011C0863F21F436
:103C40008091D60184600BC0873F21F48091D6011A
:103C5000886005C0883F31F48091D60180618093EF
:103C6000D60108958D3F21F48091D40181600BC06D
:103C70008E3F21F48091D401826005C08F3F29F4EA
:103C80008091D40184608093D4010895803F39F4F9
:103C90008091D80187FF6CC01092D80169C0813F24
:103CA00029F48091D8011816BCF362C09091D70115
:103CB000823F29F497FF5CC01092D70159C0833F1F
:103CC00019F41916CCF354C0893F41F48091D901FD
:103CD00018160CF04DC01092D9014AC08A3F29F441
:103CE0008091D90187FF44C0F6CF8B3F39F4809192
:103CF000DA0187FF3DC01092DA013AC08C3F29F407
:103D00008091DA011816BCF333C0843F21F480910E
:103D1000D6018E7F17C0853F21F48091D6018D7F1B
:103D200011C0863F21F48091D6018B7F0BC0873F65
:103D300021F48091D601877F05C0883F31F48091BE
:103D4000D6018F7E8093D60113C08D3F21F48091E0
:103D5000D4018E7F0BC08E3F21F48091D4018D7FE2
:103D600005C08F3F29F48091D4018B7F8093D401CB
:103D70008091D70181110EC08091D80181110AC0B4
:103D80008091D901811106C08091DA01811102C0B0
:103D90001092D50108958091D00183FF7EC08CEAF6
:103DA00092E00E9454078091D6011F928F9387EA78
:103DB00092E09F938F930E94ED0785EA92E00E9424
:103DC00054072091D701822F992787FD90959F93C3
:103DD0002F9382EA92E09F938F930E94ED0780EAEF
:103DE00092E00E9454072091D801822F992787FDE5
:103DF00090959F932F938DE992E09F938F930E94CC
:103E0000ED078BE992E00E9454072091D901822F9F
:103E1000992787FD90959F932F9388E992E09F9330
:103E20008F930E94ED0786E992E00E94540720914B
:103E3000DA01822F992787FD90959F932F9383E92D
:103E400092E09F938F930E94ED0780E992E00E9499
:103E500054078091D5011F928F938DE892E09F9334
:103E60008F930E94ED078BE892E00E9454078091A7
:103E7000D4011F928F9388E892E09F938F930E94C2
:103E8000ED0785E892E00E9454078DB79EB74C96E7
:103E90000FB6F8949EBF0FBE8DBF86ED91E00E94D5
:103EA000440E0E945E1B9093D3018093D20108952B
:103EB0001F93CF93DF938091D2019091D3010E9401
:103EC000761B4091D501442321F02091060130E07A
:103ED00006C0209107015AE0259F90011124821706
:103EE000930708F46AC08091D7011091D801D0914E
:103EF000D901C091DA01811107C0111105C0D1119A
:103F000003C0CC2309F459C04F3F19F04F5F4093D1
:103F1000D501181624F40E945D1D8093D70180916D
:103F2000D70187FF05C00E945D1D81958093D70151
:103F3000111624F40E945D1D8093D8018091D80150
:103F400087FF05C00E945D1D81958093D801209157
:103F5000D701222379F04091D801442359F055EB41
:103F60002503900111243093D7014503C00111248A
:103F70009093D8011D1624F40E94A51D8093D901A9
:103F80008091D90187FF05C00E94A51D819580936E
:103F9000D9011C1624F40E94A51D8093DA0180919A
:103FA000DA0187FF05C00E94A51D81958093DA0183
:103FB000DF91CF911F910C94CB1EDF91CF911F9178
:103FC0000895E6EDF1E085E0DF011D928A95E9F7BD
:103FD0001092D5011092D40108958FEC94E00E94C4
:103FE00054071F9281E08F931F9285E08F9381E8A1
:103FF00094E09F938F930E94ED070F900F900F9086
:104000000F900F900F9008958330E9F128F48130DC
:1040100061F0823009F10895853009F462C008F436
:1040200049C0863009F474C0089520910701862F95
:1040300090E0820F911D8F3F910520F4620F6093F5
:10404000070103C08FEF80930701809107011F9242
:104050008F938AEB93E072C020910601862F90E047
:10406000820F911D8F3F910520F4620F609306012E
:1040700003C08FEF80930601809106011F928F93FA
:1040800088EA93E05BC020910501862F90E0820FC3
:10409000911D8F3F910520F4620F6093050103C0CD
:1040A0008FEF80930501809105011F928F9385E921
:1040B00093E044C020910401862F90E0820F911D6F
:1040C0008F3F910520F4620F6093040103C08FEFCE
:1040D00080930401809104011F928F9380E893E004
:1040E0002DC020910301862F90E0820F911D8F3FFC
:1040F000910520F4620F6093030103C08FEF80935A
:104100000301809103011F928F9387E693E016C00D
:1041100020910201862F90E0820F911D8F3F910523
:1041200020F4620F6093020103C08FEF80930201BD
:10413000809102011F928F938CE493E09F938F9361
:104140000E94ED070F900F900F900F90089583300D
:1041500081F128F4813059F08230D1F00895853012
:1041600009F449C0B8F1863009F456C00895809129
:104170000701681720F4861B8093070102C0109284
:104180000701809107011F928F938DE393E054C044
:1041900080910601681720F4861B8093060102C0F7
:1041A00010920601809106011F928F938BE293E09B
:1041B00043C080910501681720F4861B8093050198
:1041C00002C010920501809105011F928F9388E132
:1041D00093E032C080910401681720F4861B80931D
:1041E000040102C010920401809104011F928F9378
:1041F00083E093E021C080910301681720F4861BBF
:104200008093030102C010920301809103011F9269
:104210008F938AEE92E010C080910201681720F41B
:10422000861B8093020102C010920201809102015C
:104230001F928F938FEC92E09F938F930E94ED07D4
:104240000F900F900F900F900895CF93C82F1F924B
:104250008F9324ED35E03F932F930E94ED0761E0AB
:1042600070E080E090E004C0660F771F881F991F00
:10427000CA95D2F70E94FE170F900F900F900F90E3
:10428000CF910C94F913CF938B3109F409C208F044
:1042900049C08E3009F417C200F5873009F4E7C130
:1042A000A8F4863009F09DC28091D001817F8E7F75
:1042B0008093D00181E797E00E94540789E69BE054
:1042C0000E94540781E08093DC01CFC1883009F45B
:1042D0005BC08B3009F4C5C184C2813109F464C26A
:1042E00020F4803109F402C27CC2863109F418C27C
:1042F000893109F076C282E697E00E9454078DE486
:1043000097E00E94540787E097E00E9454078DECE5
:1043100096E00E94540788E896E00E9454078AE5D8
:1043200096E0A1C1853309F458C268F4873209F4D4
:1043300054C228F48E3108F454C28D514FC28932D0
:1043400009F44BC24EC2833438F48A3308F043C2B6
:10435000883309F486C145C2833409F43EC28834E7
:1043600009F03FC20E94F9138DE49BE00E945407BC
:104370009FEF23ED80E3915020408040E1F700C0A3
:1043800000000E94C51B71C18DE69BE00E9454078E
:104390008AEB9AE00E9454070E941B1A1F928F9387
:1043A00087EB9AE09F938F930E94ED0785EB9AE04D
:1043B0000E9454070E94121AC82F82EA9AE00E94B3
:1043C00054071F92CF932DE93AE03F932F930E9419
:1043D000ED078BE99AE00E94540781E99AE00E9478
:1043E00054078C2F81701F928F932EE83AE03F93F1
:1043F0002F930E94ED078CE89AE00E94540782E810
:104400009AE00E945407C1FB882780F91F928F937E
:104410002FE73AE03F932F930E94ED078DE79AE054
:104420000E94540781E79AE00E945407C2FB882744
:1044300080F91F928F932EE63AE03F932F930E94CC
:10444000ED078CE69AE00E94540783E69AE00E940A
:104450005407C3FBCC27C0F91F92CF9380E69AE0A4
:104460009F938F930E94ED078EE59AE00E94540778
:104470000E94241AC82F8AE49AE00E9454071F92CF
:10448000CF9325E43AE03F932F930E94ED0783E416
:104490009AE00E9454078AE29AE00E9454078C2F07
:1044A00081701F928F9327E23AE03F932F930E94EF
:1044B000ED078DB79EB780960FB6F8949EBF0FBEDE
:1044C0008DBF85E29AE00E9454078EE09AE00E9438
:1044D0005407C1FB882780F91F928F932BE03AE0A5
:1044E0003F932F930E94ED0789E09AE00E945407C2
:1044F00087EF99E00E945407C2FB882780F91F923A
:104500008F9324EF39E03F932F930E94ED0782EFC2
:1045100099E00E94540780EE99E00E945407C3FB83
:10452000882780F91F928F932DED39E03F932F93C9
:104530000E94ED078BED99E00E94540781ED99E010
:104540000E945407C4FB882780F91F928F932EEC9A
:1045500039E03F932F930E94ED078CEC99E00E9485
:1045600054078AEB99E00E945407C5FB882780F91D
:104570001F928F9327EB39E03F932F930E94ED0713
:1045800085EB99E00E94540789E999E00E9454075D
:10459000C6FB882780F91F928F9326E939E03F9365
:1045A0002F930E94ED0784E999E00E9454078CE85C
:1045B00099E00E945407C7FBCC27C0F91F92CF9304
:1045C00089E899E09F938F930E94ED0787E899E02F
:1045D0000E9454070E942D1AC82F80E799E00E947C
:1045E00054071F92CF932BE639E03F932F930E94FD
:1045F000ED078DB79EB780960FB6F8949EBF0FBE9D
:104600008DBF89E699E00E9454078FE599E00E94EA
:1046100054078C2F81701F928F932CE539E03F93C4
:104620002F930E94ED078AE599E00E94540781E5E7
:1046300099E00E945407C6951F92CF938EE499E0AB
:104640009F938F930E94ED078CE499E00E9454079A
:104650008DB79EB708960FB6F8949EBF0FBE8DBF5C
:1046600004C088E997E00E945407C1E0BFC0809170
:10467000D001C82FC095C170C0FB80F98093D001D4
:10468000CC2319F081E49BE0A0C084E39BE00E946E
:1046900054078091D001897F877F8093D001E5CF37
:1046A0008091D00181FBCC27C0F991E0C927C0FBE4
:1046B00081F98093D001CC2319F087E29BE025C0DB
:1046C00089E19BE0D0CF8091D00182FBCC27C0F95B
:1046D00091E0C927C0FB82F98093D001CC2319F067
:1046E0008AE09BE012C08AEF9AE0BDCF8091D001B2
:1046F00083FBCC27C0F991E0C927C0FB83F98093E5
:10470000D001CC2351F08EEE9AE00E9454078091A4
:10471000D00181608093D00169C081EE9AE0A3CF7F
:104720008CE496E00E9454070E94F30D1F928F9331
:1047300082E396E09F938F930E94ED078091120190
:104740001F928F938BE196E09F938F930E94ED07CA
:10475000809101021F928F9388E096E09F938F9340
:104760000E94ED078091090287FB882780F91F923C
:104770008F9380EF95E09F938F930E94ED070E94A7
:104780006A1B9F938F937F936F9389ED95E09F931F
:104790008F930E94ED078DB79EB746960FB6F8949B
:1047A0009EBF0FBE8DBF61CF0E94F9138091090299
:1047B00087FBCC27C0F991E0C927C0FB87F980931C
:1047C0000902CC2329F087ED9AE00E9454070EC01D
:1047D0008CEC9AE048CF895301C080E00E942521EB
:1047E00044CF8AEC9AE00E945407C0E08C2FCF910E
:1047F000089580E0089580E008958E518A3030F465
:10480000E82FF0E0E55EFE4F8081089580E0089596
:10481000CF93C82F8091DC01813071F020F082307D
:1048200009F448C03CC1E0910001F0910101808190
:10483000823209F036C107C0E0910001F091010118
:104840008081823249F48C2F0E94F92381112FC07C
:104850008C2F0E9443212CC08C2F0E94FB2381119E
:1048600026C0C431E1F070F4CB3081F0C031D1F416
:104870000E94ED1F8CEC95E00E94540782E080932B
:10488000DC0115C0C93259F0C83361F481E797E003
:104890000E94540780ED95E00E94540708C01092D2
:1048A000DC0101C18AEC95E00E945407FCC081E064
:1048B0008170FBC0C43228F5CE3108F0C1C0CB30C6
:1048C000A1F1D0F4C73009F0D0C08EE18093070188
:1048D00082E3809306018AE08093050184E180935E
:1048E000040188E08093030188E28093020180E75D
:1048F00094E00E945407BCC0C33149F1C431C1F0F7
:10490000B4C0CB3409F4A6C028F4C93289F0C83346
:1049100061F0ABC0C13509F49BC0C23509F496C043
:10492000CE3409F0A2C06AE09BC00E94ED1FA0C077
:104930008091DB01882319F01092DB0199C08DE78B
:1049400094E00E94540781E08093DC01AEC087E5CB
:1049500094E00E94540785E494E00E9454078091FB
:1049600007011F928F9382E494E09F938F930E949C
:10497000ED0780E494E00E9454078EE294E00E94E8
:104980005407809106011F928F938BE294E09F93CE
:104990008F930E94ED0789E294E00E9454078AE118
:1049A00094E00E945407809105011F928F9387E144
:1049B00094E09F938F930E94ED0785E194E00E941D
:1049C000540784E094E00E945407809104011F92F0
:1049D0008F9381E094E09F938F930E94ED078FEF78
:1049E00093E00E9454078AEE93E00E94540780915E
:1049F00003011F928F9387EE93E09F938F930E9402
:104A0000ED0785EE93E00E9454078EEC93E00E9440
:104A10005407809102011F928F938BEC93E09F9338
:104A20008F930E94ED0789EC93E00E9454078DB7A5
:104A30009EB748960FB6F8949EBF0FBE8DBF18C0A4
:104A40008C2F0E94FD238093DB0112C061E003C024
:104A500061E006C06AE08091DB010E94042008C08A
:104A60008091DB010E94A72003C08EE694E013C072
:104A70008091DB01882369F01F928F9388E694E090
:104A80009F938F930E94ED070F900F900F900F90C0
:104A900004C085E694E00E94540781E006C01092AD
:104AA000DC0180E002C080E003CFCF9108950E9436
:104AB000071A811102C00E94E8190E942D1A8093E2
:104AC0000B02282F269530E02230310524F081702A
:104AD000826080930B0280910B0280FF02C086955A
:104AE00001C080E00C94950980910B02982F969557
:104AF00021F48170826080930B0280910B028160AF
:104B000080930B020E94311A8091D00180FF0FC068
:104B100080910B0286951F928F938AEB9BE09F9367
:104B20008F930E94ED070F900F900F900F90809140
:104B30000B0286950C94950980910B02982F9695FF
:104B400091F09158990F8170892B80930B028E7F81
:104B500091E009F490E080910B0290FB80F9809342
:104B60000B020E94311A8091D00180FF0FC080910A
:104B70000B0286951F928F9382EA9BE09F938F93FF
:104B80000E94ED070F900F900F900F9080910B02F5
:104B900086950C94950980910B02982F909590FB27
:104BA00080F980930B02813019F483E080930B022B
:104BB00080910B020E94311A8091D00180FF0FC0BA
:104BC00080910B0281701F928F938CE89BE09F93E2
:104BD0008F930E94ED070F900F900F900F90809190
:104BE0000B0280FF02C0869501C080E00C949509FD
:104BF00030910B02232F26952F5F2F77822F90E085
:104C0000317002972CF4220F232B20930B0202C049
:104C100030930B0280910B028E7F91E009F490E0BB
:104C200080910B0290FB80F980930B020E94311A55
:104C30008091D00180FF0FC080910B0286951F925A
:104C40008F9388E79BE09F938F930E94ED070F90CF
:104C50000F900F900F9080910B0286950C94950900
:104C6000811181E0880F90910B029170982B9093A5
:104C70000B029E7F21E009F420E080910B0220FBD3
:104C800080F980930B020E94311A80910B02869565
:104C90000C9495098091000208959FB7F8941092A2
:104CA000DF019FBF90911002943009F058C090919D
:104CB000E9009F702091EC0020FF02C020E801C0B5
:104CC00020E0292B94E09093E9009091EB0090FF75
:104CD00043C09091EE0097FF3FC09091DD01992372
:104CE00021F09091E80095FF37C01092DD0196E029
:104CF0003091E80035FD15C030911002343061F577
:104D00003091EB0035FD28C0915021F481E0809373
:104D1000DD0122C0EFE9FFE03197F1F700C00000AC
:104D2000E7CF8093F1008091E80085FD0AC0809173
:104D3000E80080FFFCCF8091E8008E778093E80048
:104D400006C08FB7F89491E09093DF018FBF2F706A
:104D50002093E90080E008952F702093E9008FEF01
:104D600008950F931F93CF93DF9300D01F92CDB779
:104D7000DEB78C010E948829823011F0843019F549
:104D800083E089831B830A838093E9008FEF9091EE
:104D9000E800815095FD06C095ED9A95F1F7000069
:104DA0008111F5CF8091E80085FF0DC040E050E013
:104DB00063E070E0CE0101960E94A5298091E80091
:104DC0008E778093E8000F900F900F90DF91CF9136
:104DD0001F910F910895CF93DF9300D01F92CDB70D
:104DE000DEB720911002243031F522E0298380586B
:104DF00091099B838A8383E08093E9008FEF9091F0
:104E0000E800815095FD06C095ED9A95F1F70000F8
:104E10008111F5CF8091E80085FF0DC040E050E0A2
:104E200063E070E0CE0101960E94A5298091E80020
:104E30008E778093E8000F900F900F90DF91CF91C5
:104E40000895CF93DF93EC010E948829823011F0FE
:104E50008430F9F482E08093E9008FEF9091E800CC
:104E6000815095FD06C095ED9A95F1F700008111EE
:104E7000F5CF8091E80085FF0CC040E050E065E090
:104E800070E0CE010E94A5298091E8008E77809382
:104E9000E800DF91CF910895CF93DF93EC010E945A
:104EA0008829823019F0843009F047C080911201BE
:104EB0008823E1F08091090287FF18C085E0809384
:104EC000E9008FEF9091E800815095FD06C095E1D3
:104ED0009A95F1F700008111F5CF8091E80085FFE8
:104EE0002CC040E050E060E270E017C081E08093A9
:104EF000E9008FEF9091E800815095FD06C095ED97
:104F00009A95F1F700008111F5CF8091E80085FFB7
:104F100014C040E050E068E070E0CE010E94A52996
:104F20008091E8008E778093E80080E2FE01A0EE99
:104F3000B1E001900D928A95E1F7DF91CF9108954C
:104F400087EF9BE00E94540780910F02811109C0F6
:104F50000E94372B0E94942B8091E2008460809302
:104F6000E200089583EF9BE00E94540710920F0225
:104F700008958FEE9BE00C9454078BEE9BE00C940D
:104F8000540787EE9BE00E9454070C94241B8091E9
:104F9000DE018F5F8093DE0162E30E94332E911168
:104FA00035C01092DE018091DF01882379F1809174
:104FB0001002843049F58091E9008F709091EC00E7
:104FC00090FF02C090E801C090E0982B84E08093AD
:104FD000E9008091EB0080FF14C08091EE0087FF14
:104FE00010C08091E80085FF03C01092F100F9CF56
:104FF0008091E80080FF05C08091E8008E77809363
:10500000E8009F709093E9001092DF01089542E05C
:1050100061EC81E00E94B12A42E061EC82E00E94F2
:10502000B12A42E061EC83E00E94B12A42E261ECE5
:1050300084E00E94B12A42E261EC85E00C94B12A3E
:1050400080911202833009F455C030F4813071F040
:10505000823009F48EC008958A3009F47AC08B300A
:1050600009F460C0893009F09CC020C08091110211
:10507000813A09F096C08091E800877F8093E8002C
:105080008091150290911602892B21F060E080E05A
:1050900090E003C060E280EE91E070E00E94EE29B3
:1050A0008091E8008B778093E80008958091110249
:1050B000813209F076C08091150290911602009716
:1050C00019F0049709F06DC08091E800877F809304
:1050D000E8008091E80082FD05C0809110028111F6
:1050E000F8CF5FC08091F100809300028091E800CA
:1050F0008B7753C080911102813A09F052C08091A0
:10510000150290911602892B09F04BC08091E8009E
:10511000877F8093E8008091E80080FFFCCF80913A
:10512000120136C0809111028132D9F580911502A9
:1051300090911602892BA9F58091E800877F8093D2
:10514000E8000E94E62A80911302809312010C94D9
:10515000F91380911102813221F58091E800877F57
:105160008093E8000E94E62A809114028093010255
:10517000089580911102813AA1F48091E800877F1F
:105180008093E8008091E80080FFFCCF80910102CD
:105190008093F1008091E8008E778093E8000C9472
:1051A000E62A089584B7877F84BF88E10FB6F89414
:1051B00080936000109260000FBE80E880936100D1
:1051C000109261000E947C0E0E94372B0E94942B4B
:1051D0008091E20084608093E2008DE496E20E9478
:1051E000D11978940E94162E0E94800E88E091E0DA
:1051F0000E94EE0D86ED9BE00E9454078091100204
:10520000853089F482ED9BE00E9454070E94E11AE8
:1052100080910E02882391F30E940F1B882371F363
:105220000E948F29EBCF0E94B00EE8CF0C94182972
:10523000292F332723303105A9F06CF421303105B3
:1052400009F448C02230310509F049C08DE890E0EA
:1052500027E43CE048C021323105F9F02232310523
:1052600049F13DC099278130910571F02CF4892BCB
:10527000B1F5E3E4FCE00DC08230910541F0039705
:1052800071F5EBEFFBE005C0EFE1FCE002C0E1E00F
:10529000FCE0849190E09F0126C065307105F8F430
:1052A000FB01EE0FFF1FEC5CFE4F2081318189E096
:1052B00090E019C06530710590F4FB01EE0FFF1FFF
:1052C000E65DFE4F20813181FB01EB5DFE4F808169
:1052D00090E009C082E190E024ED3CE004C080E071
:1052E00090E020E030E0FA013183208308950895B2
:1052F000CF93C82F0E947729C0930202CF910895BF
:1053000080911002843011F482E0089581E00895C4
:1053100080910202811102C00C948029089580E1DD
:1053200089BD82E189BD09B400FEFDCF8091D8001E
:105330008F7D8093D8008091E00082608093E000B0
:105340008091E00081FDFCCF0895CF92DF92EF9233
:10535000FF920F931F93CF93DF937C018B01EA01A0
:105360000E94072B811131C0209731F088819981EB
:10537000081B190BE80EF91EC12CD12C01151105C3
:1053800019F18091E80085FD14C08091E8008E77C6
:105390008093E800209741F0888199818C0D9D1DB4
:1053A0009983888385E011C00E94072B882331F3FD
:1053B0000CC0F70181917F018093F1000150110928
:1053C000FFEFCF1ADF0ADACF80E0DF91CF911F9194
:1053D0000F91FF90EF90DF90CF90089520911702EA
:1053E000309118022617370748F06115710539F416
:1053F0002091E8002E772093E80001C0B901FC015C
:1054000020E061157105B9F180911002882309F43B
:1054100040C0853009F43FC08091E80083FD3DC065
:105420008091E80082FF06C08091E80082FF26C0DC
:1054300080E008958091E80080FFE3CF2091F300A1
:105440008091F20090E0922B6115710551F0883047
:10545000910538F421912093F10061507109019672
:10546000F3CF21E0089709F020E08091E8008E77E3
:105470008093E800C6CF2111C7CFD6CF809110020C
:10548000882339F0853039F08091E80083FFCCCF54
:1054900004C082E0089583E0089581E0089520919A
:1054A0001702309118022617370748F06115710569
:1054B00039F42091E8002E772093E80001C0B9016B
:1054C000FC0120E061157105C1F180911002882373
:1054D00009F441C0853009F440C08091E80083FDA3
:1054E0003EC08091E80082FF06C08091E80082FF04
:1054F00027C080E008958091E80080FFE3CF2091ED
:10550000F3008091F20090E0922B6115710559F043
:105510008830910540F424912093F1003196615038
:1055200071090196F2CF21E0089709F020E08091FF
:10553000E8008E778093E800C5CF2111C6CFD5CF84
:1055400080911002882339F0853039F08091E8008D
:1055500083FFCBCF04C082E0089583E0089581E00B
:105560000895982F973058F59093E900981739F0DF
:105570007091EC002091ED005091F00003C0242FB9
:10558000762F50E021FF19C03091EB003E7F309321
:10559000EB003091ED003D7F3093ED003091EB005A
:1055A00031603093EB007093EC002093ED0050934A
:1055B000F0002091EE0027FF07C09F5FD3CF8F70D0
:1055C0008093E90081E0089580E0089580911102C0
:1055D00087FD05C08091E80080FF0EC012C0809159
:1055E000E80082FD05C0809110028111F8CF089576
:1055F0008091E8008B7708C0809110028111EACF7A
:1056000008958091E8008E778093E8000895809156
:10561000E4009091E50045E62091EC0020FF21C0D8
:105620002091E80020FD21C020911002222389F062
:10563000253089F02091EB0025FD0FC02091E4007A
:105640003091E5002817390739F3415041F0C9017D
:10565000E3CF82E0089583E0089581E0089584E037
:1056600008952091E80022FFDFCF80E008950E9496
:10567000A52B0E94AD2BE0EEF0E08081816080835D
:10568000E8EDF0E080818F77808319BCA7EDB0E072
:105690008C918E7F8C9380818F7E808310920F02FD
:1056A00008950F931F93CF93DF930E94A52B0E9421
:1056B000AD2BC8EDD0E088818F77888388818068A2
:1056C000888388818F7D888319BC10921002109284
:1056D0000C0210920E0210920D0200EE10E0F80182
:1056E00080818B7F808388818160888342E060E055
:1056F00080E00E94B12AE1EEF0E080818E7F80831D
:10570000E2EEF0E080818160808380818860808328
:10571000F80180818E7F8083888180618883DF911A
:10572000CF911F910F910895E8EDF0E080818F7E79
:105730008083E7EDF0E080818160808384E082BF38
:1057400081E080930F020C94512BE8EDF0E0808112
:105750008E7F80831092E20008951092DA001092FA
:10576000E10008951F920F920FB60F9211242F930C
:105770003F934F935F936F937F938F939F93AF93D9
:10578000BF93EF93FF938091E10082FF0BC0809164
:10579000E20082FF07C08091E1008B7F8093E100EF
:1057A0000E94C7278091DA0080FF1FC08091D80037
:1057B00080FF1BC08091DA008E7F8093DA00809199
:1057C000D90080FF0DC080E189BD82E189BD09B4A7
:1057D00000FEFDCF81E0809310020E94A02705C04B
:1057E00019BC109210020E94B2278091E10080FF44
:1057F00019C08091E20080FF15C08091E2008E7F89
:105800008093E2008091E20080618093E2008091C9
:10581000D80080628093D80019BC85E08093100284
:105820000E94BD278091E10084FF30C08091E2009A
:1058300084FF2CC080E189BD82E189BD09B400FEEE
:10584000FDCF8091D8008F7D8093D8008091E100BA
:105850008F7E8093E1008091E2008F7E8093E20052
:105860008091E20081608093E20080910C028823A5
:1058700011F084E007C08091E30087FF02C083E05D
:1058800001C081E0809310020E94C1278091E10055
:1058900083FF29C08091E20083FF25C08091E10051
:1058A000877F8093E10082E08093100210920C02C7
:1058B0008091E1008E7F8093E1008091E2008E7FF5
:1058C0008093E2008091E20080618093E20042E0F8
:1058D00060E080E00E94B12A8091F00088608093AF
:1058E000F0000E94B927FF91EF91BF91AF919F9176
:1058F0008F917F916F915F914F913F912F910F9079
:105900000FBE0F901F9018951F920F920FB60F9217
:1059100011242F933F934F935F936F937F938F93B4
:105920009F93AF93BF93CF93EF93FF93C091E90001
:10593000CF708091EC001092E9008091F000877F99
:105940008093F00078940E94C02C1092E90080911E
:10595000F00088608093F000C093E900FF91EF9120
:10596000CF91BF91AF919F918F917F916F915F91F7
:105970004F913F912F910F900FBE0F901F90189550
:105980001F93CF93DF93CDB7DEB7AA970FB6F894E6
:10599000DEBF0FBECDBFE1E1F2E08091F100819367
:1059A00022E0E931F207C9F70E9420288091E8003F
:1059B00083FF24C12091110230911202832F90E0C5
:1059C0008A30910508F01AC1FC01E556FF4F0C948E
:1059D000532E203821F0223809F010C108C08091E0
:1059E0000D0290910E02992389F082600FC0809180
:1059F00015028F70873008F001C18093E900809113
:105A0000EB0085FB882780F91092E9009091E8006F
:105A1000977F9093E8008093F1001092F100CCC042
:105A2000822F8D7F09F0EAC0222319F0223061F025
:105A3000E5C080911302813009F0E0C0333009F0F5
:105A400080E080930E022AC080911302811126C04B
:105A5000209115022F708FEF820F863008F0CEC094
:105A60002093E9008091EB0080FF18C08091EB004B
:105A7000333011F4806210C080618093EB0081E0CC
:105A800090E001C0880F2A95EAF78093EA0010920F
:105A9000EA008091EB0088608093EB001092E900AF
:105AA0008091E800877F8093E8000E94E62AA6C0E4
:105AB0002111A4C0109113021F778091E300807818
:105AC000812B8093E3008091E800877F8093E8003A
:105AD0000E94E62A8091E80080FFFCCF8091E300DD
